:020000040800F2
:10000000300800208901000855070008C1060008D3
:1000100051070008DD040008330E0008000000004E
:100020000000000000000000000000000D090008B2
:10003000E104000800000000DD070008C50A000810
:10004000A3010008A3010008A3010008A301000800
:10005000A3010008A3010008A3010008A3010008F0
:10006000A3010008A3010008A3010008A3010008E0
:10007000A3010008A3010008A3010008A3010008D0
:10008000A3010008A3010008A3010008A3010008C0
:10009000A3010008A3010008A3010008A3010008B0
:1000A000A3010008A3010008A3010008A3010008A0
:1000B000A3010008290B0008A3010008A301000800
:1000C000A3010008A3010008A3010008A301000880
:1000D000A3010008A10B0008A3010008290C0008D7
:1000E000A3010008A3010008A301000800F002F822
:1000F00000F03AF80AA090E8000C82448344AAF188
:100100000107DA4501D100F02FF8AFF2090EBAE885
:100110000F0013F0010F18BFFB1A43F0010318473B
:10012000AC0F0000CC0F0000103A24BF78C878C193
:10013000FAD8520724BF30C830C144BF04680C60ED
:10014000704700000023002400250026103A28BF35
:1001500078C1FBD8520728BF30C148BF0B60704739
:100160001FB51FBD10B510BD00F033F81146FFF7E5
:10017000F7FF00F0BFFE00F051F803B4FFF7F2FF05
:1001800003BC00F06DFE00000948804709480047A5
:10019000FEE7FEE7FEE7FEE7FEE7FEE7FEE7FEE737
:1001A000FEE7FEE704480549054A064B7047000094
:1001B000C90A0008ED0000083002002030080020C5
:1001C00030040020300400207047704770477047AB
:1001D0007047754600F028F8AE460500694653465C
:1001E00020F00700854618B020B5FFF7DBFFBDE81B
:1001F00020404FF000064FF000074FF000084FF08E
:10020000000B21F00701AC46ACE8C009ACE8C0091E
:10021000ACE8C009ACE8C0098D4670470446AFF3AE
:1002200000802046FFF7A9FF00487047D00100205A
:1002300021B1826842F00102826003E0826822F00C
:10024000010282607047000010B5044612488442E3
:1002500008D10121401500F0DFFA0021601500F0FF
:10026000DBFA17E00D48844208D10121001500F0A7
:10027000D3FA0021201500F0CFFA0BE008488442A1
:1002800008D10121C80300F0C7FA00214FF4004053
:1002900000F0C2FA10BD0000002401400028014017
:1002A000003C0140014600208A6802F004020AB1C5
:1002B000012000E0002070470146C86C80B2704702
:1002C0000246002013680B400BB1012000E0002023
:1002D0007047014600208A6802F008020AB1012036
:1002E00000E000207047000030B5024600200023E7
:1002F00050680F4C20400D790C6844EA05242043D7
:10030000506090680B4C2040D1E902542C434D7949
:1003100044EA450420439060D06A20F470000C7CCD
:10032000641EE4B2234340EA0350D06230BD0000B3
:10033000FFFEF0FFFDF7F1FFF0B504460D4600208B
:100340000021092D11DDE068A5F10A0606EB46073C
:10035000072606FA07F18843A5F10A0606EB4606CA
:1003600003FA06F10843E0600CE0206905EB45075D
:10037000072606FA07F1884305EB450603FA06F15E
:1003800008432061072A0FDA606B561E06EB8607CA
:100390001F2606FA07F18843561E06EB860605FA65
:1003A00006F10843606322E00D2A0FDA206BD61FA6
:1003B00006EB86071F2606FA07F18843D61F06EBD1
:1003C000860605FA06F10843206310E0E06AA2F110
:1003D0000D0606EB86071F2606FA07F18843A2F1F1
:1003E0000D0606EB860605FA06F10843E062F0BD4D
:1003F000816841F008018160704721B1826842F450
:10040000A002826003E0826822F4A002826070474A
:10041000816841F0040181607047000000B587B039
:1004200001214FF4017000F0E7F901214FF402704F
:1004300000F0E2F94FF4004000F0D2F90220ADF8EC
:10044000040000208DF8070001A9224800F049F8B7
:100450001020ADF8040000208DF8070001A91D4808
:1004600000F03FF82020ADF8040000208DF80700D0
:1004700001A9184800F035F81748FFF7E5FE0020FD
:1004800002908DF80C008DF80D004FF46020049060
:100490000020059001208DF8180002A90E48FFF7F2
:1004A00023FF01210C48FFF7C3FE0B48FFF7A0FF15
:1004B00000BF0948FFF70DFF0028FAD10648FFF7F3
:1004C000A7FF00BF0448FFF7EDFE0028FAD107B0F0
:1004D00000BD0000000801400024014000BFFEE70D
:1004E00070472DE9F0410246002500260020002338
:1004F0000024002791F803C00CF00F0591F803C009
:100500000CF0100CBCF1000F03D091F802C04CEAC3
:10051000050591F800C0BCF1000F31D0146800202F
:100520002BE04FF0010C0CFA00F3B1F800C00CEA1C
:1005300003069E4220D183004FF00F0C0CFA03F704
:10054000BC4305FA03FC4CEA040491F803C0BCF177
:10055000280F06D14FF0010C0CFA00FCC2F814C0B1
:100560000AE091F803C0BCF1480F05D14FF0010C2F
:100570000CFA00FCC2F810C0401C0828D1D314604B
:10058000B1F800C0BCF1FF0F34DD546800202EE04C
:1005900000F1080C4FF0010808FA0CF3B1F800C0A4
:1005A0000CEA03069E4221D183004FF00F0C0CFA97
:1005B00003F7BC4305FA03FC4CEA040491F803C0BA
:1005C000BCF1280F05D100F1080C08FA0CF8C2F8AC
:1005D000148091F803C0BCF1480F07D100F1080C5A
:1005E0004FF0010808FA0CF8C2F81080401C0828E7
:1005F000CED35460BDE8F081F0B50A460023002454
:100600000021002500F00046B6F1004F02D11D4E3A
:10061000F16901E01B4E7168C0F3034583B200F439
:100620004016B6F5401F08D121F07061154E76686E
:1006300026F07066134F7E6012E000F48016B6F567
:10064000801F06D1032606FA05F4A14341F070612C
:1006500006E0460D360103FA06F6B14341F070613B
:1006600022B1460D360103FA06F6314300F000468A
:10067000B6F1004F02D1034EF16101E0014E71600D
:10068000F0BD0000000001400161704710B5044654
:100690000723012221460948FFF74EFE01210748A2
:1006A000FFF7ABFE00BF02210448FFF709FE002858
:1006B000F9D00248FFF700FE10BD00000024014001
:1006C00000BFFEE708B50121042000F095F84FF4C3
:1006D0008050ADF8000048208DF8030069460948B5
:1006E000FFF7FFFE0121082000F086F80A20ADF890
:1006F000000048208DF8030069460348FFF7F1FE2B
:1007000008BD000000080140000C014008B50121AF
:10071000052000F071F801210B48FFF76DFF4FF441
:100720000060ADF8000010208DF8030003208DF864
:10073000020069460548FFF7D4FE4FF40061034804
:10074000FFF7A2FF08BD00000002300000080140D2
:1007500000BFFEE77047000070B5002100230F22A4
:10076000C47804B3154C246804F4E064C4F5E06470
:10077000210AC1F10403CA40447804FA03F18478E1
:100780001440214309010E4C0678A155047804F069
:100790001F050124AC4005786D11AD0005F1E02581
:1007A000C5F8004109E0047804F01F050124AC40BD
:1007B000044D0678761145F8264070BD0CED00E03A
:1007C00000E400E080E100E002490143024A1160D8
:1007D000704700000000FA050CED00E070470000D3
:1007E00001460020034A506820F44040084350600E
:1007F000704700000010024029B1064A9269024386
:10080000044B9A6104E0034A92698243014B9A6166
:10081000704700000010024029B1064AD268024326
:10082000044BDA6004E0034AD2688243014BDA6089
:10083000704700000010024030B500210022002463
:1008400000232D4D6D6805F00C0121B1042905D060
:10085000082923D105E0294D056022E0274D0560D8
:100860001FE0254D6D6805F47012234D6D6805F489
:100870008034022505EB92421CB9214D5543056099
:100880000BE01D4D6D6805F400351DB11C4D554341
:10089000056002E0194D5543056002E0174D056003
:1008A00000BF00BF144D6D6805F0F0010909154D3A
:1008B0006B5C0568DD4045600F4D6D6805F4E061D7
:1008C000090A104D6B5C4568DD4085600A4D6D6816
:1008D00005F46051C90A0B4D6B5C4568DD40C5608D
:1008E000054D6D6805F44041890B074D6B5CC5688B
:1008F000B5FBF3F5056130BD0010024000127A002F
:1009000000093D001D0000202D0000207047000060
:1009100010B52348006890B90A2000F0C5FA2048B5
:10092000006860B91F48007808B9012000E0002085
:100930001C49087000BF1A4800680128FBD11A48FA
:10094000006890B90A2000F0AFFA1748006860B953
:100950001648007808B9012000E00020134908700B
:1009600000BF114800680128FBD10F480838006813
:10097000A0B90A2000F098FA0B480838006868B956
:100980000B48007808B9012000E0002008490870F1
:1009900000BF0548083800680128FAD110BD0000E2
:1009A000300121421A0000200C8121421B0000204E
:1009B0001C00002010B500F001F810BD0CB500209F
:1009C000019000903348006840F48030314908605D
:1009D00000BF3048006800F4003000900198401CCF
:1009E0000190009818B90198B0F5A06FF1D129488D
:1009F000006800F4003010B10120009001E00020F8
:100A000000900098012843D12348006840F010006E
:100A1000214908600846006820F003000860084685
:100A2000006840F0020008601A48406819494860B0
:100A30000846406848600846406840F48060486066
:100A40000846406820F47C1048600846406840F43E
:100A5000E81048600846006840F08070086000BFF9
:100A60000C48006800F000700028F9D00948406880
:100A700020F00300074948600846406840F0020043
:100A8000486000BF0348406800F00C000828F9D116
:100A90000CBD00000010024000200240042808D1D4
:100AA0004FF0E021096941F004014FF0E0221161AB
:100AB00007E04FF0E021096921F004014FF0E02246
:100AC000116170477047000010B51348006840F08E
:100AD00001001149086008464068104908400E4965
:100AE0004860084600680E4908400B4908600846FF
:100AF000006820F4802008600846406820F4FE006A
:100B000048604FF41F008860FFF754FF4FF000600B
:100B10000449086010BD0000001002400000FFF80A
:100B2000FFFFF6FE08ED00E010B50121094800F0D6
:100B300024F868B10848008840F40040064908805D
:100B40000121044800F00AF80021024800F009F8E9
:100B500010BD0000000400403E000020CA43028295
:100B6000704721B1028842F00102028004E002884D
:100B70004FF6FE731A400280704730B502460020DF
:100B800000230024158A05EA0103958905EA01047A
:100B900013B10CB1012000E0002030BD818470470A
:100BA00010B540F225511D4800F082F810B31B48E3
:100BB00000F03AF9C4B21A48008800F40040C8B9FD
:100BC0001748008800F4804060B10A2C03D0002050
:100BD0001349088020E01248008840F40040104982
:100BE000088019E00D2C06D10D48008840F48040A3
:100BF0000B49088010E00A480088C0F30D0009493D
:100C00000C5407480088401C0549088008460088A5
:100C1000C72801DD0020088010BD00000038014019
:100C20003C0000204000002010B540F2255116483D
:100C300000F03EF8F8B1144800F0F6F8C4B21348DA
:100C4000008800F40040B0B910480088C82813DAC2
:100C500000210F48FFF7A2FF0C48008818B90121B6
:100C60000B48FFF77EFF094801880088401C074AAF
:100C700010800848445405E00448008840F40040CF
:100C80000249088010BD0000004800403E000020DE
:100C9000000400400801002021B1828942F4005282
:100CA000828104E082894DF6FF731A408281704789
:100CB00070B50246002400230025002040F66A1685
:100CC000B14200D100BFC1F3421501F01F0301265C
:100CD00006FA03F3012D02D19689334006E0022D76
:100CE00002D1168A334001E0968A33400C12012665
:100CF00006FA04F41688344013B10CB1012000E068
:100D0000002070BDF0B50346002400260025002019
:100D100040F66A17B94200D100BF1846C1F3421429
:100D200001F01F06012707FA06F5012C01D10C304E
:100D300004E0022C01D1103000E014301AB1076831
:100D40002F43076002E00768AF430760F0BD000073
:100D50002DE9F04786B005460E460024A24600BFA6
:100D6000A1460027B08900B100BF2F462C8A4CF65F
:100D7000FF700440F08804432C82AC894EF6F310D7
:100D80000440B08831890843718908430443AC8129
:100D9000AC8A4FF6FF400440B0890443AC8201A8FE
:100DA000FFF74AFD1F48874202D1DDF810A001E09D
:100DB000DDF80CA0A88900F4004040B10AEBCA009D
:100DC00000EB0A1031684900B0FBF1F807E00AEBCC
:100DD000CA0000EB0A1031688900B0FBF1F864200A
:100DE000B8FBF0F004012009642101FB1089A889F7
:100DF00000F4004040B1322000EBC900B0FBF1F03C
:100E000000F00700044308E0322000EB09106421E1
:100E1000B0FBF1F000F00F0004432C8106B0BDE8F8
:100E2000F08700000038014001468888C0F30800C0
:100E3000704700BFFEE700B502460B46D8B290806F
:100E400000BF104600F003F80028FAD000BD0146AC
:100E5000088800F0400008B1012070470020FCE73E
:100E600000BF704710B56FF00400FFF717FE0A4887
:100E700000680A49B0FBF1F009490870084600789B
:100E800000EB4001C1EBC0104FF6FF7101EAC0005A
:100E90000449088010BD00000000002000127A0004
:100EA00032000020340000200146114A12884A43D3
:100EB0004FF0E0235A6100229A611A46126942F00B
:100EC00001021A6100BF4FF0E022106900F0010238
:100ED0001AB100F48032002AF5D04FF0E0221269F6
:100EE00022F001024FF0E0231A6100229A6170475C
:100EF00034000020FFF7B6FF002045490860FFF7E7
:100F000005FC4FF4A060FFF75FFC4FF4165000F0B3
:100F10008DF8FFF783FAFFF7D5FB77E0FFF7F8FCD2
:100F20003C48007818B901203949086002E00020E7
:100F3000374908600120FFF7A9FB374908800420E2
:100F4000FFF7A4FB354908800520FFF79FFB3449D4
:100F5000088031480088C0F307102F4908802F48C7
:100F60000088C0F307102D4908802D480088C0F381
:100F700007102B490880FE212A48FFF75CFF00BFBD
:100F80002848FFF764FF0028FAD023480178254855
:100F9000FFF751FF00BF2348FFF759FF0028FAD0A1
:100FA0001E4801781F48FFF746FF00BF1D48FFF7A6
:100FB0004EFF0028FAD01A4801781A48FFF73BFF85
:100FC00000BF1848FFF743FF0028FAD01148017806
:100FD0001448FFF730FF00BF1248FFF738FF002822
:100FE000FAD0114801780F48FFF725FF00BF0D48E0
:100FF000FFF72DFF0028FAD0FF210A48FFF71BFF5B
:1010000000BF0848FFF723FF0028FAD086E700005A
:10101000AC0121421B00002014000020160000201B
:1010200018000020003801401C00002010B586B0D8
:101030000446012144F20500FFF7DEFB4FF4007087
:10104000ADF8140003208DF8160018208DF8170055
:1010500005A91C48FFF745FA4FF48060ADF814006D
:1010600004208DF8170005A91648FFF73AFA252045
:101070008DF8000003208DF801008DF8020001209A
:101080008DF803006846FFF767FB01940020ADF878
:101090000800ADF80A00ADF80C00ADF810000C2007
:1010A000ADF80E0001A90848FFF752FE012240F2F8
:1010B00025510548FFF726FE01210348FFF7ECFD07
:1010C00006B010BD0008014000380140EC100008D7
:1010D0000000002040000000280100082C1100083A
:1010E00040000020F00700004401000800A24A046C
:1010F00000000000000000000102030406070809C8
:1011000000000000000000010100000000010203D7
:10111000040102030406070809020406080000008F
:0C112000000000000000000000000000C3
:04000005080000ED02
:00000001FF
